{
  "contractName": "SpaceCoin",
  "abi": [
    {
      "inputs": [
        {
          "internalType": "uint256",
          "name": "cap",
          "type": "uint256"
        },
        {
          "internalType": "address",
          "name": "initialOwner",
          "type": "address"
        }
      ],
      "stateMutability": "nonpayable",
      "type": "constructor"
    },
    {
      "inputs": [],
      "name": "AccessControlBadConfirmation",
      "type": "error"
    },
    {
      "inputs": [
        {
          "internalType": "address",
          "name": "account",
          "type": "address"
        },
        {
          "internalType": "bytes32",
          "name": "neededRole",
          "type": "bytes32"
        }
      ],
      "name": "AccessControlUnauthorizedAccount",
      "type": "error"
    },
    {
      "inputs": [
        {
          "internalType": "uint256",
          "name": "increasedSupply",
          "type": "uint256"
        },
        {
          "internalType": "uint256",
          "name": "cap",
          "type": "uint256"
        }
      ],
      "name": "ERC20ExceededCap",
      "type": "error"
    },
    {
      "inputs": [
        {
          "internalType": "address",
          "name": "spender",
          "type": "address"
        },
        {
          "internalType": "uint256",
          "name": "allowance",
          "type": "uint256"
        },
        {
          "internalType": "uint256",
          "name": "needed",
          "type": "uint256"
        }
      ],
      "name": "ERC20InsufficientAllowance",
      "type": "error"
    },
    {
      "inputs": [
        {
          "internalType": "address",
          "name": "sender",
          "type": "address"
        },
        {
          "internalType": "uint256",
          "name": "balance",
          "type": "uint256"
        },
        {
          "internalType": "uint256",
          "name": "needed",
          "type": "uint256"
        }
      ],
      "name": "ERC20InsufficientBalance",
      "type": "error"
    },
    {
      "inputs": [
        {
          "internalType": "address",
          "name": "approver",
          "type": "address"
        }
      ],
      "name": "ERC20InvalidApprover",
      "type": "error"
    },
    {
      "inputs": [
        {
          "internalType": "uint256",
          "name": "cap",
          "type": "uint256"
        }
      ],
      "name": "ERC20InvalidCap",
      "type": "error"
    },
    {
      "inputs": [
        {
          "internalType": "address",
          "name": "receiver",
          "type": "address"
        }
      ],
      "name": "ERC20InvalidReceiver",
      "type": "error"
    },
    {
      "inputs": [
        {
          "internalType": "address",
          "name": "sender",
          "type": "address"
        }
      ],
      "name": "ERC20InvalidSender",
      "type": "error"
    },
    {
      "inputs": [
        {
          "internalType": "address",
          "name": "spender",
          "type": "address"
        }
      ],
      "name": "ERC20InvalidSpender",
      "type": "error"
    },
    {
      "inputs": [],
      "name": "EnforcedPause",
      "type": "error"
    },
    {
      "inputs": [],
      "name": "ExpectedPause",
      "type": "error"
    },
    {
      "anonymous": false,
      "inputs": [
        {
          "indexed": true,
          "internalType": "address",
          "name": "owner",
          "type": "address"
        },
        {
          "indexed": true,
          "internalType": "address",
          "name": "spender",
          "type": "address"
        },
        {
          "indexed": false,
          "internalType": "uint256",
          "name": "value",
          "type": "uint256"
        }
      ],
      "name": "Approval",
      "type": "event"
    },
    {
      "anonymous": false,
      "inputs": [
        {
          "indexed": true,
          "internalType": "address",
          "name": "from",
          "type": "address"
        },
        {
          "indexed": false,
          "internalType": "uint256",
          "name": "amount",
          "type": "uint256"
        }
      ],
      "name": "Burned",
      "type": "event"
    },
    {
      "anonymous": false,
      "inputs": [
        {
          "indexed": true,
          "internalType": "address",
          "name": "to",
          "type": "address"
        },
        {
          "indexed": false,
          "internalType": "uint256",
          "name": "amount",
          "type": "uint256"
        }
      ],
      "name": "Minted",
      "type": "event"
    },
    {
      "anonymous": false,
      "inputs": [
        {
          "indexed": false,
          "internalType": "address",
          "name": "account",
          "type": "address"
        }
      ],
      "name": "Paused",
      "type": "event"
    },
    {
      "anonymous": false,
      "inputs": [
        {
          "indexed": true,
          "internalType": "bytes32",
          "name": "role",
          "type": "bytes32"
        },
        {
          "indexed": true,
          "internalType": "bytes32",
          "name": "previousAdminRole",
          "type": "bytes32"
        },
        {
          "indexed": true,
          "internalType": "bytes32",
          "name": "newAdminRole",
          "type": "bytes32"
        }
      ],
      "name": "RoleAdminChanged",
      "type": "event"
    },
    {
      "anonymous": false,
      "inputs": [
        {
          "indexed": true,
          "internalType": "bytes32",
          "name": "role",
          "type": "bytes32"
        },
        {
          "indexed": true,
          "internalType": "address",
          "name": "account",
          "type": "address"
        },
        {
          "indexed": true,
          "internalType": "address",
          "name": "sender",
          "type": "address"
        }
      ],
      "name": "RoleGranted",
      "type": "event"
    },
    {
      "anonymous": false,
      "inputs": [
        {
          "indexed": true,
          "internalType": "bytes32",
          "name": "role",
          "type": "bytes32"
        },
        {
          "indexed": true,
          "internalType": "address",
          "name": "account",
          "type": "address"
        },
        {
          "indexed": true,
          "internalType": "address",
          "name": "sender",
          "type": "address"
        }
      ],
      "name": "RoleRevoked",
      "type": "event"
    },
    {
      "anonymous": false,
      "inputs": [
        {
          "indexed": true,
          "internalType": "address",
          "name": "from",
          "type": "address"
        },
        {
          "indexed": true,
          "internalType": "address",
          "name": "to",
          "type": "address"
        },
        {
          "indexed": false,
          "internalType": "uint256",
          "name": "value",
          "type": "uint256"
        }
      ],
      "name": "Transfer",
      "type": "event"
    },
    {
      "anonymous": false,
      "inputs": [
        {
          "indexed": false,
          "internalType": "address",
          "name": "account",
          "type": "address"
        }
      ],
      "name": "Unpaused",
      "type": "event"
    },
    {
      "inputs": [],
      "name": "DEFAULT_ADMIN_ROLE",
      "outputs": [
        {
          "internalType": "bytes32",
          "name": "",
          "type": "bytes32"
        }
      ],
      "stateMutability": "view",
      "type": "function"
    },
    {
      "inputs": [],
      "name": "MINTER_ROLE",
      "outputs": [
        {
          "internalType": "bytes32",
          "name": "",
          "type": "bytes32"
        }
      ],
      "stateMutability": "view",
      "type": "function"
    },
    {
      "inputs": [],
      "name": "PAUSER_ROLE",
      "outputs": [
        {
          "internalType": "bytes32",
          "name": "",
          "type": "bytes32"
        }
      ],
      "stateMutability": "view",
      "type": "function"
    },
    {
      "inputs": [
        {
          "internalType": "address",
          "name": "owner",
          "type": "address"
        },
        {
          "internalType": "address",
          "name": "spender",
          "type": "address"
        }
      ],
      "name": "allowance",
      "outputs": [
        {
          "internalType": "uint256",
          "name": "",
          "type": "uint256"
        }
      ],
      "stateMutability": "view",
      "type": "function"
    },
    {
      "inputs": [
        {
          "internalType": "address",
          "name": "spender",
          "type": "address"
        },
        {
          "internalType": "uint256",
          "name": "value",
          "type": "uint256"
        }
      ],
      "name": "approve",
      "outputs": [
        {
          "internalType": "bool",
          "name": "",
          "type": "bool"
        }
      ],
      "stateMutability": "nonpayable",
      "type": "function"
    },
    {
      "inputs": [
        {
          "internalType": "address",
          "name": "account",
          "type": "address"
        }
      ],
      "name": "balanceOf",
      "outputs": [
        {
          "internalType": "uint256",
          "name": "",
          "type": "uint256"
        }
      ],
      "stateMutability": "view",
      "type": "function"
    },
    {
      "inputs": [
        {
          "internalType": "address",
          "name": "account",
          "type": "address"
        },
        {
          "internalType": "uint256",
          "name": "value",
          "type": "uint256"
        }
      ],
      "name": "burnFrom",
      "outputs": [],
      "stateMutability": "nonpayable",
      "type": "function"
    },
    {
      "inputs": [],
      "name": "cap",
      "outputs": [
        {
          "internalType": "uint256",
          "name": "",
          "type": "uint256"
        }
      ],
      "stateMutability": "view",
      "type": "function"
    },
    {
      "inputs": [],
      "name": "decimals",
      "outputs": [
        {
          "internalType": "uint8",
          "name": "",
          "type": "uint8"
        }
      ],
      "stateMutability": "view",
      "type": "function"
    },
    {
      "inputs": [
        {
          "internalType": "bytes32",
          "name": "role",
          "type": "bytes32"
        }
      ],
      "name": "getRoleAdmin",
      "outputs": [
        {
          "internalType": "bytes32",
          "name": "",
          "type": "bytes32"
        }
      ],
      "stateMutability": "view",
      "type": "function"
    },
    {
      "inputs": [
        {
          "internalType": "bytes32",
          "name": "role",
          "type": "bytes32"
        },
        {
          "internalType": "address",
          "name": "account",
          "type": "address"
        }
      ],
      "name": "grantRole",
      "outputs": [],
      "stateMutability": "nonpayable",
      "type": "function"
    },
    {
      "inputs": [
        {
          "internalType": "bytes32",
          "name": "role",
          "type": "bytes32"
        },
        {
          "internalType": "address",
          "name": "account",
          "type": "address"
        }
      ],
      "name": "hasRole",
      "outputs": [
        {
          "internalType": "bool",
          "name": "",
          "type": "bool"
        }
      ],
      "stateMutability": "view",
      "type": "function"
    },
    {
      "inputs": [],
      "name": "name",
      "outputs": [
        {
          "internalType": "string",
          "name": "",
          "type": "string"
        }
      ],
      "stateMutability": "view",
      "type": "function"
    },
    {
      "inputs": [],
      "name": "paused",
      "outputs": [
        {
          "internalType": "bool",
          "name": "",
          "type": "bool"
        }
      ],
      "stateMutability": "view",
      "type": "function"
    },
    {
      "inputs": [
        {
          "internalType": "bytes32",
          "name": "role",
          "type": "bytes32"
        },
        {
          "internalType": "address",
          "name": "callerConfirmation",
          "type": "address"
        }
      ],
      "name": "renounceRole",
      "outputs": [],
      "stateMutability": "nonpayable",
      "type": "function"
    },
    {
      "inputs": [
        {
          "internalType": "bytes32",
          "name": "role",
          "type": "bytes32"
        },
        {
          "internalType": "address",
          "name": "account",
          "type": "address"
        }
      ],
      "name": "revokeRole",
      "outputs": [],
      "stateMutability": "nonpayable",
      "type": "function"
    },
    {
      "inputs": [
        {
          "internalType": "bytes4",
          "name": "interfaceId",
          "type": "bytes4"
        }
      ],
      "name": "supportsInterface",
      "outputs": [
        {
          "internalType": "bool",
          "name": "",
          "type": "bool"
        }
      ],
      "stateMutability": "view",
      "type": "function"
    },
    {
      "inputs": [],
      "name": "symbol",
      "outputs": [
        {
          "internalType": "string",
          "name": "",
          "type": "string"
        }
      ],
      "stateMutability": "view",
      "type": "function"
    },
    {
      "inputs": [],
      "name": "totalSupply",
      "outputs": [
        {
          "internalType": "uint256",
          "name": "",
          "type": "uint256"
        }
      ],
      "stateMutability": "view",
      "type": "function"
    },
    {
      "inputs": [
        {
          "internalType": "address",
          "name": "to",
          "type": "address"
        },
        {
          "internalType": "uint256",
          "name": "value",
          "type": "uint256"
        }
      ],
      "name": "transfer",
      "outputs": [
        {
          "internalType": "bool",
          "name": "",
          "type": "bool"
        }
      ],
      "stateMutability": "nonpayable",
      "type": "function"
    },
    {
      "inputs": [
        {
          "internalType": "address",
          "name": "from",
          "type": "address"
        },
        {
          "internalType": "address",
          "name": "to",
          "type": "address"
        },
        {
          "internalType": "uint256",
          "name": "value",
          "type": "uint256"
        }
      ],
      "name": "transferFrom",
      "outputs": [
        {
          "internalType": "bool",
          "name": "",
          "type": "bool"
        }
      ],
      "stateMutability": "nonpayable",
      "type": "function"
    },
    {
      "inputs": [
        {
          "internalType": "address",
          "name": "to",
          "type": "address"
        },
        {
          "internalType": "uint256",
          "name": "amount",
          "type": "uint256"
        }
      ],
      "name": "mint",
      "outputs": [],
      "stateMutability": "nonpayable",
      "type": "function"
    },
    {
      "inputs": [
        {
          "internalType": "uint256",
          "name": "value",
          "type": "uint256"
        }
      ],
      "name": "burn",
      "outputs": [],
      "stateMutability": "nonpayable",
      "type": "function"
    },
    {
      "inputs": [
        {
          "internalType": "address",
          "name": "from",
          "type": "address"
        },
        {
          "internalType": "uint256",
          "name": "amount",
          "type": "uint256"
        }
      ],
      "name": "burn",
      "outputs": [],
      "stateMutability": "nonpayable",
      "type": "function"
    },
    {
      "inputs": [],
      "name": "pause",
      "outputs": [],
      "stateMutability": "nonpayable",
      "type": "function"
    },
    {
      "inputs": [],
      "name": "unpause",
      "outputs": [],
      "stateMutability": "nonpayable",
      "type": "function"
    }
  ],
  "bytecode": "0x60a060405234801562000010575f80fd5b50604051620018873803806200188783398101604081905262000033916200054e565b620000416012600a62000697565b6200004d9083620006ae565b6040518060400160405280600981526020016829b830b1b2a1b7b4b760b91b815250604051806040016040528060048152602001630a686a8b60e31b81525081600390816200009d919062000767565b506004620000ac828262000767565b505050805f03620000d75760405163392e1e2760e01b81525f60048201526024015b60405180910390fd5b6080526005805460ff191690556001600160a01b0381166200014d5760405162461bcd60e51b815260206004820152602860248201527f496e697469616c206f776e65722063616e6e6f7420626520746865207a65726f604482015267206164647265737360c01b6064820152608401620000ce565b6200015b6012600a62000697565b6200016b906302faf080620006ae565b821015620001d25760405162461bcd60e51b815260206004820152602d60248201527f436170206973206c657373207468616e20726571756972656420696e6974696160448201526c1b081b5a5b9d08185b5bdd5b9d609a1b6064820152608401620000ce565b620001de5f8262000279565b506200020b7f65d7a28e3265b37a6474929f336521b332c1681b933f6cb9f3376673440d862a8262000279565b50620002387f9f2df0fed2c77648de5860a4cc508cd0818c85b8b8a1ab4ceeef8d981c8956a68262000279565b50620002643360125b6200024e90600a62000697565b6200025e906302faf080620006ae565b62000329565b6200027181601262000241565b505062000845565b5f8281526006602090815260408083206001600160a01b038516845290915281205460ff1662000320575f8381526006602090815260408083206001600160a01b03861684529091529020805460ff19166001179055620002d73390565b6001600160a01b0316826001600160a01b0316847f2f8788117e7eff1d82e926ec794901d17c78024a50270940304540a733656f0d60405160405180910390a450600162000323565b505f5b92915050565b6001600160a01b038216620003545760405163ec442f0560e01b81525f6004820152602401620000ce565b620003615f838362000365565b5050565b6200037283838362000377565b505050565b620003816200038e565b62000372838383620003b5565b60055460ff1615620003b35760405163d93c066560e01b815260040160405180910390fd5b565b620003c28383836200041f565b6001600160a01b03831662000372575f620003dc60805190565b90505f620003e960025490565b905081811115620004185760405163279e7e1560e21b81526004810182905260248101839052604401620000ce565b5050505050565b6001600160a01b0383166200044d578060025f8282546200044191906200082f565b90915550620004bf9050565b6001600160a01b0383165f9081526020819052604090205481811015620004a15760405163391434e360e21b81526001600160a01b03851660048201526024810182905260448101839052606401620000ce565b6001600160a01b0384165f9081526020819052604090209082900390555b6001600160a01b038216620004dd57600280548290039055620004fb565b6001600160a01b0382165f9081526020819052604090208054820190555b816001600160a01b0316836001600160a01b03167fddf252ad1be2c89b69c2b068fc378daa952ba7f163c4a11628f55a4df523b3ef836040516200054191815260200190565b60405180910390a3505050565b5f806040838503121562000560575f80fd5b825160208401519092506001600160a01b03811681146200057f575f80fd5b809150509250929050565b634e487b7160e01b5f52601160045260245ffd5b600181815b80851115620005de57815f1904821115620005c257620005c26200058a565b80851615620005d057918102915b93841c9390800290620005a3565b509250929050565b5f82620005f65750600162000323565b816200060457505f62000323565b81600181146200061d5760028114620006285762000648565b600191505062000323565b60ff8411156200063c576200063c6200058a565b50506001821b62000323565b5060208310610133831016604e8410600b84101617156200066d575081810a62000323565b6200067983836200059e565b805f19048211156200068f576200068f6200058a565b029392505050565b5f620006a760ff841683620005e6565b9392505050565b80820281158282048414176200032357620003236200058a565b634e487b7160e01b5f52604160045260245ffd5b600181811c90821680620006f157607f821691505b6020821081036200071057634e487b7160e01b5f52602260045260245ffd5b50919050565b601f82111562000372575f81815260208120601f850160051c810160208610156200073e5750805b601f850160051c820191505b818110156200075f578281556001016200074a565b505050505050565b81516001600160401b03811115620007835762000783620006c8565b6200079b81620007948454620006dc565b8462000716565b602080601f831160018114620007d1575f8415620007b95750858301515b5f19600386901b1c1916600185901b1785556200075f565b5f85815260208120601f198616915b828110156200080157888601518255948401946001909101908401620007e0565b50858210156200081f57878501515f19600388901b60f8161c191681555b5050505050600190811b01905550565b808201808211156200032357620003236200058a565b608051611022620008655f395f81816102480152610ca601526110225ff3fe608060405234801561000f575f80fd5b5060043610610187575f3560e01c80635c975abb116100d95780639dc29fac11610093578063d53913931161006e578063d539139314610343578063d547741f1461036a578063dd62ed3e1461037d578063e63ab1e9146103b5575f80fd5b80639dc29fac14610316578063a217fddf14610329578063a9059cbb14610330575f80fd5b80635c975abb146102ad57806370a08231146102b857806379cc6790146102e05780638456cb59146102f357806391d14854146102fb57806395d89b411461030e575f80fd5b80632f2ff15d1161014457806336568abe1161011f57806336568abe1461026c5780633f4ba83a1461027f57806340c10f191461028757806342966c681461029a575f80fd5b80632f2ff15d14610222578063313ce56714610237578063355274ea14610246575f80fd5b806301ffc9a71461018b57806306fdde03146101b3578063095ea7b3146101c857806318160ddd146101db57806323b872dd146101ed578063248a9ca314610200575b5f80fd5b61019e610199366004610e1e565b6103dc565b60405190151581526020015b60405180910390f35b6101bb610412565b6040516101aa9190610e4c565b61019e6101d6366004610eb2565b6104a2565b6002545b6040519081526020016101aa565b61019e6101fb366004610eda565b6104b9565b6101df61020e366004610f13565b5f9081526006602052604090206001015490565b610235610230366004610f2a565b6104dc565b005b604051601281526020016101aa565b7f00000000000000000000000000000000000000000000000000000000000000006101df565b61023561027a366004610f2a565b610506565b61023561053e565b610235610295366004610eb2565b6105a7565b6102356102a8366004610f13565b61067e565b60055460ff1661019e565b6101df6102c6366004610f54565b6001600160a01b03165f9081526020819052604090205490565b6102356102ee366004610eb2565b61068b565b6102356106a4565b61019e610309366004610f2a565b610706565b6101bb610730565b610235610324366004610eb2565b61073f565b6101df5f81565b61019e61033e366004610eb2565b61080e565b6101df7f9f2df0fed2c77648de5860a4cc508cd0818c85b8b8a1ab4ceeef8d981c8956a681565b610235610378366004610f2a565b61081b565b6101df61038b366004610f6d565b6001600160a01b039182165f90815260016020908152604080832093909416825291909152205490565b6101df7f65d7a28e3265b37a6474929f336521b332c1681b933f6cb9f3376673440d862a81565b5f6001600160e01b03198216637965db0b60e01b148061040c57506301ffc9a760e01b6001600160e01b03198316145b92915050565b60606003805461042190610f95565b80601f016020809104026020016040519081016040528092919081815260200182805461044d90610f95565b80156104985780601f1061046f57610100808354040283529160200191610498565b820191905f5260205f20905b81548152906001019060200180831161047b57829003601f168201915b5050505050905090565b5f336104af81858561083f565b5060019392505050565b5f336104c685828561084c565b6104d18585856108c1565b506001949350505050565b5f828152600660205260409020600101546104f68161091e565b6105008383610928565b50505050565b6001600160a01b038116331461052f5760405163334bd91960e11b815260040160405180910390fd5b61053982826109b9565b505050565b7f65d7a28e3265b37a6474929f336521b332c1681b933f6cb9f3376673440d862a6105688161091e565b610570610a24565b6040513381527f5db9ee0a495bf2e6ff9c91a7834c1ba4fdd244a5e8aa4e537bd38aeae4b073aa906020015b60405180910390a150565b7f9f2df0fed2c77648de5860a4cc508cd0818c85b8b8a1ab4ceeef8d981c8956a66105d18161091e565b6001600160a01b03831661062c5760405162461bcd60e51b815260206004820152601f60248201527f43616e6e6f74206d696e7420746f20746865207a65726f20616464726573730060448201526064015b60405180910390fd5b6106368383610a76565b826001600160a01b03167f30385c845b448a36257a6a1716e6ad2e1bc2cbe333cde1e69fe849ad6511adfe8360405161067191815260200190565b60405180910390a2505050565b6106883382610aaa565b50565b61069682338361084c565b6106a08282610aaa565b5050565b7f65d7a28e3265b37a6474929f336521b332c1681b933f6cb9f3376673440d862a6106ce8161091e565b6106d6610ade565b6040513381527f62e78cea01bee320cd4e420270b5ea74000d11b0c9f74754ebdbfc544b05a2589060200161059c565b5f9182526006602090815260408084206001600160a01b0393909316845291905290205460ff1690565b60606004805461042190610f95565b7f9f2df0fed2c77648de5860a4cc508cd0818c85b8b8a1ab4ceeef8d981c8956a66107698161091e565b6001600160a01b0383166107c95760405162461bcd60e51b815260206004820152602160248201527f43616e6e6f74206275726e2066726f6d20746865207a65726f206164647265736044820152607360f81b6064820152608401610623565b6107d38383610aaa565b826001600160a01b03167f696de425f79f4a40bc6d2122ca50507f0efbeabbff86a84871b7196ab8ea8df78360405161067191815260200190565b5f336104af8185856108c1565b5f828152600660205260409020600101546108358161091e565b61050083836109b9565b6105398383836001610b1b565b6001600160a01b038381165f908152600160209081526040808320938616835292905220545f19811461050057818110156108b357604051637dc7a0d960e11b81526001600160a01b03841660048201526024810182905260448101839052606401610623565b61050084848484035f610b1b565b6001600160a01b0383166108ea57604051634b637e8f60e11b81525f6004820152602401610623565b6001600160a01b0382166109135760405163ec442f0560e01b81525f6004820152602401610623565b610539838383610bed565b6106888133610bf8565b5f6109338383610706565b6109b2575f8381526006602090815260408083206001600160a01b03861684529091529020805460ff1916600117905561096a3390565b6001600160a01b0316826001600160a01b0316847f2f8788117e7eff1d82e926ec794901d17c78024a50270940304540a733656f0d60405160405180910390a450600161040c565b505f61040c565b5f6109c48383610706565b156109b2575f8381526006602090815260408083206001600160a01b0386168085529252808320805460ff1916905551339286917ff6391f5c32d9c69d2a47ea670b442974b53935d1edc7fd64eb21e047a839171b9190a450600161040c565b610a2c610c31565b6005805460ff191690557f5db9ee0a495bf2e6ff9c91a7834c1ba4fdd244a5e8aa4e537bd38aeae4b073aa335b6040516001600160a01b03909116815260200160405180910390a1565b6001600160a01b038216610a9f5760405163ec442f0560e01b81525f6004820152602401610623565b6106a05f8383610bed565b6001600160a01b038216610ad357604051634b637e8f60e11b81525f6004820152602401610623565b6106a0825f83610bed565b610ae6610c56565b6005805460ff191660011790557f62e78cea01bee320cd4e420270b5ea74000d11b0c9f74754ebdbfc544b05a258610a593390565b6001600160a01b038416610b445760405163e602df0560e01b81525f6004820152602401610623565b6001600160a01b038316610b6d57604051634a1406b160e11b81525f6004820152602401610623565b6001600160a01b038085165f908152600160209081526040808320938716835292905220829055801561050057826001600160a01b0316846001600160a01b03167f8c5be1e5ebec7d5bd14f71427d1e84f3dd0314c0f7b2291e5b200ac8c7c3b92584604051610bdf91815260200190565b60405180910390a350505050565b610539838383610c7a565b610c028282610706565b6106a05760405163e2517d3f60e01b81526001600160a01b038216600482015260248101839052604401610623565b60055460ff16610c5457604051638dfc202b60e01b815260040160405180910390fd5b565b60055460ff1615610c545760405163d93c066560e01b815260040160405180910390fd5b610c82610c56565b610539838383610c93838383610cf8565b6001600160a01b038316610539576002547f00000000000000000000000000000000000000000000000000000000000000009081811115610cf15760405163279e7e1560e21b81526004810182905260248101839052604401610623565b5050505050565b6001600160a01b038316610d22578060025f828254610d179190610fcd565b90915550610d929050565b6001600160a01b0383165f9081526020819052604090205481811015610d745760405163391434e360e21b81526001600160a01b03851660048201526024810182905260448101839052606401610623565b6001600160a01b0384165f9081526020819052604090209082900390555b6001600160a01b038216610dae57600280548290039055610dcc565b6001600160a01b0382165f9081526020819052604090208054820190555b816001600160a01b0316836001600160a01b03167fddf252ad1be2c89b69c2b068fc378daa952ba7f163c4a11628f55a4df523b3ef83604051610e1191815260200190565b60405180910390a3505050565b5f60208284031215610e2e575f80fd5b81356001600160e01b031981168114610e45575f80fd5b9392505050565b5f6020808352835180828501525f5b81811015610e7757858101830151858201604001528201610e5b565b505f604082860101526040601f19601f8301168501019250505092915050565b80356001600160a01b0381168114610ead575f80fd5b919050565b5f8060408385031215610ec3575f80fd5b610ecc83610e97565b946020939093013593505050565b5f805f60608486031215610eec575f80fd5b610ef584610e97565b9250610f0360208501610e97565b9150604084013590509250925092565b5f60208284031215610f23575f80fd5b5035919050565b5f8060408385031215610f3b575f80fd5b82359150610f4b60208401610e97565b90509250929050565b5f60208284031215610f64575f80fd5b610e4582610e97565b5f8060408385031215610f7e575f80fd5b610f8783610e97565b9150610f4b60208401610e97565b600181811c90821680610fa957607f821691505b602082108103610fc757634e487b7160e01b5f52602260045260245ffd5b50919050565b8082018082111561040c57634e487b7160e01b5f52601160045260245ffdfea26469706673582212205d7de30ccae10363dbb0feebd19cc559478108439f963ccba71981ad305d2d0a64736f6c63430008140033",
  "immutableReferences": {
    "1163": [
      {
        "length": 32,
        "start": 584
      },
      {
        "length": 32,
        "start": 3238
      }
    ]
  },
  "source": "// SPDX-License-Identifier: MIT\r\npragma solidity ^0.8.0;\r\n\r\nimport {ERC20} from \"@openzeppelin/contracts/token/ERC20/ERC20.sol\";\r\nimport {ERC20Capped} from \"@openzeppelin/contracts/token/ERC20/extensions/ERC20Capped.sol\";\r\nimport {ERC20Pausable} from \"@openzeppelin/contracts/token/ERC20/extensions/ERC20Pausable.sol\";\r\nimport {ERC20Burnable} from \"@openzeppelin/contracts/token/ERC20/extensions/ERC20Burnable.sol\";\r\nimport {AccessControl} from \"@openzeppelin/contracts/access/AccessControl.sol\";\r\n\r\ncontract SpaceCoin is\r\n    ERC20,\r\n    ERC20Capped,\r\n    ERC20Burnable,\r\n    ERC20Pausable,\r\n    AccessControl\r\n{\r\n    bytes32 public constant PAUSER_ROLE = keccak256(\"PAUSER_ROLE\");\r\n    bytes32 public constant MINTER_ROLE = keccak256(\"MINTER_ROLE\");\r\n\r\n    event Minted(address indexed to, uint256 amount);\r\n    event Burned(address indexed from, uint256 amount);\r\n\r\n    constructor(\r\n        uint256 cap,\r\n        address initialOwner\r\n    ) ERC20(\"SpaceCoin\", \"SCTX\") ERC20Capped(cap * (10 ** decimals())) {\r\n        require(\r\n            initialOwner != address(0),\r\n            \"Initial owner cannot be the zero address\"\r\n        );\r\n        require(\r\n            cap >= 50000000 * (10 ** decimals()),\r\n            \"Cap is less than required initial mint amount\"\r\n        );\r\n\r\n        _grantRole(DEFAULT_ADMIN_ROLE, initialOwner);\r\n        _grantRole(PAUSER_ROLE, initialOwner);\r\n        _grantRole(MINTER_ROLE, initialOwner);\r\n\r\n        _mint(msg.sender, 50000000 * (10 ** decimals()));\r\n        _mint(initialOwner, 50000000 * (10 ** decimals())); // Mint initial supply to owner\r\n    }\r\n\r\n    function mint(address to, uint256 amount) public onlyRole(MINTER_ROLE) {\r\n        require(to != address(0), \"Cannot mint to the zero address\");\r\n        _mint(to, amount);\r\n        emit Minted(to, amount);\r\n    }\r\n\r\n    function burn(address from, uint256 amount) public onlyRole(MINTER_ROLE) {\r\n        require(from != address(0), \"Cannot burn from the zero address\");\r\n        _burn(from, amount);\r\n        emit Burned(from, amount);\r\n    }\r\n\r\n    function pause() public onlyRole(PAUSER_ROLE) {\r\n        _pause();\r\n        emit Paused(msg.sender);\r\n    }\r\n\r\n    function unpause() public onlyRole(PAUSER_ROLE) {\r\n        _unpause();\r\n        emit Unpaused(msg.sender);\r\n    }\r\n\r\n    function _update(\r\n        address from,\r\n        address to,\r\n        uint256 value\r\n    ) internal virtual override(ERC20Capped, ERC20, ERC20Pausable) {\r\n        super._update(from, to, value);\r\n    }\r\n}\r\n",
  "sourcePath": "C:\\Users\\siya\\projects\\space-token\\contracts\\SpaceCoin.sol",
  "compiler": {
    "name": "solc",
    "version": "0.8.20+commit.a1b79de6.Emscripten.clang"
  },
  "schemaVersion": "3.4.16",
  "updatedAt": "2024-07-28T08:48:43.816Z",
  "devdoc": {
    "errors": {
      "AccessControlBadConfirmation()": [
        {
          "details": "The caller of a function is not the expected one. NOTE: Don't confuse with {AccessControlUnauthorizedAccount}."
        }
      ],
      "AccessControlUnauthorizedAccount(address,bytes32)": [
        {
          "details": "The `account` is missing a role."
        }
      ],
      "ERC20ExceededCap(uint256,uint256)": [
        {
          "details": "Total supply cap has been exceeded."
        }
      ],
      "ERC20InsufficientAllowance(address,uint256,uint256)": [
        {
          "details": "Indicates a failure with the `spender`s `allowance`. Used in transfers.",
          "params": {
            "allowance": "Amount of tokens a `spender` is allowed to operate with.",
            "needed": "Minimum amount required to perform a transfer.",
            "spender": "Address that may be allowed to operate on tokens without being their owner."
          }
        }
      ],
      "ERC20InsufficientBalance(address,uint256,uint256)": [
        {
          "details": "Indicates an error related to the current `balance` of a `sender`. Used in transfers.",
          "params": {
            "balance": "Current balance for the interacting account.",
            "needed": "Minimum amount required to perform a transfer.",
            "sender": "Address whose tokens are being transferred."
          }
        }
      ],
      "ERC20InvalidApprover(address)": [
        {
          "details": "Indicates a failure with the `approver` of a token to be approved. Used in approvals.",
          "params": {
            "approver": "Address initiating an approval operation."
          }
        }
      ],
      "ERC20InvalidCap(uint256)": [
        {
          "details": "The supplied cap is not a valid cap."
        }
      ],
      "ERC20InvalidReceiver(address)": [
        {
          "details": "Indicates a failure with the token `receiver`. Used in transfers.",
          "params": {
            "receiver": "Address to which tokens are being transferred."
          }
        }
      ],
      "ERC20InvalidSender(address)": [
        {
          "details": "Indicates a failure with the token `sender`. Used in transfers.",
          "params": {
            "sender": "Address whose tokens are being transferred."
          }
        }
      ],
      "ERC20InvalidSpender(address)": [
        {
          "details": "Indicates a failure with the `spender` to be approved. Used in approvals.",
          "params": {
            "spender": "Address that may be allowed to operate on tokens without being their owner."
          }
        }
      ],
      "EnforcedPause()": [
        {
          "details": "The operation failed because the contract is paused."
        }
      ],
      "ExpectedPause()": [
        {
          "details": "The operation failed because the contract is not paused."
        }
      ]
    },
    "events": {
      "Approval(address,address,uint256)": {
        "details": "Emitted when the allowance of a `spender` for an `owner` is set by a call to {approve}. `value` is the new allowance."
      },
      "Paused(address)": {
        "details": "Emitted when the pause is triggered by `account`."
      },
      "RoleAdminChanged(bytes32,bytes32,bytes32)": {
        "details": "Emitted when `newAdminRole` is set as ``role``'s admin role, replacing `previousAdminRole` `DEFAULT_ADMIN_ROLE` is the starting admin for all roles, despite {RoleAdminChanged} not being emitted signaling this."
      },
      "RoleGranted(bytes32,address,address)": {
        "details": "Emitted when `account` is granted `role`. `sender` is the account that originated the contract call, an admin role bearer except when using {AccessControl-_setupRole}."
      },
      "RoleRevoked(bytes32,address,address)": {
        "details": "Emitted when `account` is revoked `role`. `sender` is the account that originated the contract call:   - if using `revokeRole`, it is the admin role bearer   - if using `renounceRole`, it is the role bearer (i.e. `account`)"
      },
      "Transfer(address,address,uint256)": {
        "details": "Emitted when `value` tokens are moved from one account (`from`) to another (`to`). Note that `value` may be zero."
      },
      "Unpaused(address)": {
        "details": "Emitted when the pause is lifted by `account`."
      }
    },
    "kind": "dev",
    "methods": {
      "allowance(address,address)": {
        "details": "See {IERC20-allowance}."
      },
      "approve(address,uint256)": {
        "details": "See {IERC20-approve}. NOTE: If `value` is the maximum `uint256`, the allowance is not updated on `transferFrom`. This is semantically equivalent to an infinite approval. Requirements: - `spender` cannot be the zero address."
      },
      "balanceOf(address)": {
        "details": "See {IERC20-balanceOf}."
      },
      "burn(uint256)": {
        "details": "Destroys a `value` amount of tokens from the caller. See {ERC20-_burn}."
      },
      "burnFrom(address,uint256)": {
        "details": "Destroys a `value` amount of tokens from `account`, deducting from the caller's allowance. See {ERC20-_burn} and {ERC20-allowance}. Requirements: - the caller must have allowance for ``accounts``'s tokens of at least `value`."
      },
      "cap()": {
        "details": "Returns the cap on the token's total supply."
      },
      "decimals()": {
        "details": "Returns the number of decimals used to get its user representation. For example, if `decimals` equals `2`, a balance of `505` tokens should be displayed to a user as `5.05` (`505 / 10 ** 2`). Tokens usually opt for a value of 18, imitating the relationship between Ether and Wei. This is the default value returned by this function, unless it's overridden. NOTE: This information is only used for _display_ purposes: it in no way affects any of the arithmetic of the contract, including {IERC20-balanceOf} and {IERC20-transfer}."
      },
      "getRoleAdmin(bytes32)": {
        "details": "Returns the admin role that controls `role`. See {grantRole} and {revokeRole}. To change a role's admin, use {_setRoleAdmin}."
      },
      "grantRole(bytes32,address)": {
        "details": "Grants `role` to `account`. If `account` had not been already granted `role`, emits a {RoleGranted} event. Requirements: - the caller must have ``role``'s admin role. May emit a {RoleGranted} event."
      },
      "hasRole(bytes32,address)": {
        "details": "Returns `true` if `account` has been granted `role`."
      },
      "name()": {
        "details": "Returns the name of the token."
      },
      "paused()": {
        "details": "Returns true if the contract is paused, and false otherwise."
      },
      "renounceRole(bytes32,address)": {
        "details": "Revokes `role` from the calling account. Roles are often managed via {grantRole} and {revokeRole}: this function's purpose is to provide a mechanism for accounts to lose their privileges if they are compromised (such as when a trusted device is misplaced). If the calling account had been revoked `role`, emits a {RoleRevoked} event. Requirements: - the caller must be `callerConfirmation`. May emit a {RoleRevoked} event."
      },
      "revokeRole(bytes32,address)": {
        "details": "Revokes `role` from `account`. If `account` had been granted `role`, emits a {RoleRevoked} event. Requirements: - the caller must have ``role``'s admin role. May emit a {RoleRevoked} event."
      },
      "supportsInterface(bytes4)": {
        "details": "See {IERC165-supportsInterface}."
      },
      "symbol()": {
        "details": "Returns the symbol of the token, usually a shorter version of the name."
      },
      "totalSupply()": {
        "details": "See {IERC20-totalSupply}."
      },
      "transfer(address,uint256)": {
        "details": "See {IERC20-transfer}. Requirements: - `to` cannot be the zero address. - the caller must have a balance of at least `value`."
      },
      "transferFrom(address,address,uint256)": {
        "details": "See {IERC20-transferFrom}. Emits an {Approval} event indicating the updated allowance. This is not required by the EIP. See the note at the beginning of {ERC20}. NOTE: Does not update the allowance if the current allowance is the maximum `uint256`. Requirements: - `from` and `to` cannot be the zero address. - `from` must have a balance of at least `value`. - the caller must have allowance for ``from``'s tokens of at least `value`."
      }
    },
    "version": 1
  },
  "userdoc": {
    "kind": "user",
    "methods": {},
    "version": 1
  }
}