{
  "contractName": "SpaceToken",
  "abi": [
    {
      "inputs": [
        {
          "internalType": "uint256",
          "name": "cap",
          "type": "uint256"
        },
        {
          "internalType": "address",
          "name": "initialOwner",
          "type": "address"
        }
      ],
      "stateMutability": "nonpayable",
      "type": "constructor"
    },
    {
      "inputs": [
        {
          "internalType": "uint256",
          "name": "increasedSupply",
          "type": "uint256"
        },
        {
          "internalType": "uint256",
          "name": "cap",
          "type": "uint256"
        }
      ],
      "name": "ERC20ExceededCap",
      "type": "error"
    },
    {
      "inputs": [
        {
          "internalType": "address",
          "name": "spender",
          "type": "address"
        },
        {
          "internalType": "uint256",
          "name": "allowance",
          "type": "uint256"
        },
        {
          "internalType": "uint256",
          "name": "needed",
          "type": "uint256"
        }
      ],
      "name": "ERC20InsufficientAllowance",
      "type": "error"
    },
    {
      "inputs": [
        {
          "internalType": "address",
          "name": "sender",
          "type": "address"
        },
        {
          "internalType": "uint256",
          "name": "balance",
          "type": "uint256"
        },
        {
          "internalType": "uint256",
          "name": "needed",
          "type": "uint256"
        }
      ],
      "name": "ERC20InsufficientBalance",
      "type": "error"
    },
    {
      "inputs": [
        {
          "internalType": "address",
          "name": "approver",
          "type": "address"
        }
      ],
      "name": "ERC20InvalidApprover",
      "type": "error"
    },
    {
      "inputs": [
        {
          "internalType": "uint256",
          "name": "cap",
          "type": "uint256"
        }
      ],
      "name": "ERC20InvalidCap",
      "type": "error"
    },
    {
      "inputs": [
        {
          "internalType": "address",
          "name": "receiver",
          "type": "address"
        }
      ],
      "name": "ERC20InvalidReceiver",
      "type": "error"
    },
    {
      "inputs": [
        {
          "internalType": "address",
          "name": "sender",
          "type": "address"
        }
      ],
      "name": "ERC20InvalidSender",
      "type": "error"
    },
    {
      "inputs": [
        {
          "internalType": "address",
          "name": "spender",
          "type": "address"
        }
      ],
      "name": "ERC20InvalidSpender",
      "type": "error"
    },
    {
      "inputs": [],
      "name": "EnforcedPause",
      "type": "error"
    },
    {
      "inputs": [],
      "name": "ExpectedPause",
      "type": "error"
    },
    {
      "inputs": [
        {
          "internalType": "address",
          "name": "owner",
          "type": "address"
        }
      ],
      "name": "OwnableInvalidOwner",
      "type": "error"
    },
    {
      "inputs": [
        {
          "internalType": "address",
          "name": "account",
          "type": "address"
        }
      ],
      "name": "OwnableUnauthorizedAccount",
      "type": "error"
    },
    {
      "anonymous": false,
      "inputs": [
        {
          "indexed": true,
          "internalType": "address",
          "name": "owner",
          "type": "address"
        },
        {
          "indexed": true,
          "internalType": "address",
          "name": "spender",
          "type": "address"
        },
        {
          "indexed": false,
          "internalType": "uint256",
          "name": "value",
          "type": "uint256"
        }
      ],
      "name": "Approval",
      "type": "event"
    },
    {
      "anonymous": false,
      "inputs": [
        {
          "indexed": true,
          "internalType": "address",
          "name": "previousOwner",
          "type": "address"
        },
        {
          "indexed": true,
          "internalType": "address",
          "name": "newOwner",
          "type": "address"
        }
      ],
      "name": "OwnershipTransferred",
      "type": "event"
    },
    {
      "anonymous": false,
      "inputs": [
        {
          "indexed": false,
          "internalType": "address",
          "name": "account",
          "type": "address"
        }
      ],
      "name": "Paused",
      "type": "event"
    },
    {
      "anonymous": false,
      "inputs": [
        {
          "indexed": true,
          "internalType": "address",
          "name": "from",
          "type": "address"
        },
        {
          "indexed": true,
          "internalType": "address",
          "name": "to",
          "type": "address"
        },
        {
          "indexed": false,
          "internalType": "uint256",
          "name": "value",
          "type": "uint256"
        }
      ],
      "name": "Transfer",
      "type": "event"
    },
    {
      "anonymous": false,
      "inputs": [
        {
          "indexed": false,
          "internalType": "address",
          "name": "account",
          "type": "address"
        }
      ],
      "name": "Unpaused",
      "type": "event"
    },
    {
      "inputs": [
        {
          "internalType": "address",
          "name": "owner",
          "type": "address"
        },
        {
          "internalType": "address",
          "name": "spender",
          "type": "address"
        }
      ],
      "name": "allowance",
      "outputs": [
        {
          "internalType": "uint256",
          "name": "",
          "type": "uint256"
        }
      ],
      "stateMutability": "view",
      "type": "function"
    },
    {
      "inputs": [
        {
          "internalType": "address",
          "name": "spender",
          "type": "address"
        },
        {
          "internalType": "uint256",
          "name": "value",
          "type": "uint256"
        }
      ],
      "name": "approve",
      "outputs": [
        {
          "internalType": "bool",
          "name": "",
          "type": "bool"
        }
      ],
      "stateMutability": "nonpayable",
      "type": "function"
    },
    {
      "inputs": [
        {
          "internalType": "address",
          "name": "account",
          "type": "address"
        }
      ],
      "name": "balanceOf",
      "outputs": [
        {
          "internalType": "uint256",
          "name": "",
          "type": "uint256"
        }
      ],
      "stateMutability": "view",
      "type": "function"
    },
    {
      "inputs": [
        {
          "internalType": "uint256",
          "name": "value",
          "type": "uint256"
        }
      ],
      "name": "burn",
      "outputs": [],
      "stateMutability": "nonpayable",
      "type": "function"
    },
    {
      "inputs": [
        {
          "internalType": "address",
          "name": "account",
          "type": "address"
        },
        {
          "internalType": "uint256",
          "name": "value",
          "type": "uint256"
        }
      ],
      "name": "burnFrom",
      "outputs": [],
      "stateMutability": "nonpayable",
      "type": "function"
    },
    {
      "inputs": [],
      "name": "cap",
      "outputs": [
        {
          "internalType": "uint256",
          "name": "",
          "type": "uint256"
        }
      ],
      "stateMutability": "view",
      "type": "function"
    },
    {
      "inputs": [],
      "name": "decimals",
      "outputs": [
        {
          "internalType": "uint8",
          "name": "",
          "type": "uint8"
        }
      ],
      "stateMutability": "view",
      "type": "function"
    },
    {
      "inputs": [],
      "name": "name",
      "outputs": [
        {
          "internalType": "string",
          "name": "",
          "type": "string"
        }
      ],
      "stateMutability": "view",
      "type": "function"
    },
    {
      "inputs": [],
      "name": "owner",
      "outputs": [
        {
          "internalType": "address",
          "name": "",
          "type": "address"
        }
      ],
      "stateMutability": "view",
      "type": "function"
    },
    {
      "inputs": [],
      "name": "paused",
      "outputs": [
        {
          "internalType": "bool",
          "name": "",
          "type": "bool"
        }
      ],
      "stateMutability": "view",
      "type": "function"
    },
    {
      "inputs": [],
      "name": "renounceOwnership",
      "outputs": [],
      "stateMutability": "nonpayable",
      "type": "function"
    },
    {
      "inputs": [],
      "name": "symbol",
      "outputs": [
        {
          "internalType": "string",
          "name": "",
          "type": "string"
        }
      ],
      "stateMutability": "view",
      "type": "function"
    },
    {
      "inputs": [],
      "name": "totalSupply",
      "outputs": [
        {
          "internalType": "uint256",
          "name": "",
          "type": "uint256"
        }
      ],
      "stateMutability": "view",
      "type": "function"
    },
    {
      "inputs": [
        {
          "internalType": "address",
          "name": "to",
          "type": "address"
        },
        {
          "internalType": "uint256",
          "name": "value",
          "type": "uint256"
        }
      ],
      "name": "transfer",
      "outputs": [
        {
          "internalType": "bool",
          "name": "",
          "type": "bool"
        }
      ],
      "stateMutability": "nonpayable",
      "type": "function"
    },
    {
      "inputs": [
        {
          "internalType": "address",
          "name": "from",
          "type": "address"
        },
        {
          "internalType": "address",
          "name": "to",
          "type": "address"
        },
        {
          "internalType": "uint256",
          "name": "value",
          "type": "uint256"
        }
      ],
      "name": "transferFrom",
      "outputs": [
        {
          "internalType": "bool",
          "name": "",
          "type": "bool"
        }
      ],
      "stateMutability": "nonpayable",
      "type": "function"
    },
    {
      "inputs": [
        {
          "internalType": "address",
          "name": "newOwner",
          "type": "address"
        }
      ],
      "name": "transferOwnership",
      "outputs": [],
      "stateMutability": "nonpayable",
      "type": "function"
    },
    {
      "inputs": [],
      "name": "pause",
      "outputs": [],
      "stateMutability": "nonpayable",
      "type": "function"
    },
    {
      "inputs": [],
      "name": "unpause",
      "outputs": [],
      "stateMutability": "nonpayable",
      "type": "function"
    }
  ],
  "bytecode": "0x60a06040523480156200001157600080fd5b506040516200156338038062001563833981016040819052620000349162000537565b8062000048640100000000620001e6810204565b6200005590600a620006a7565b620000619084620006bf565b6040518060400160405280600a81526020017f5370616365546f6b656e000000000000000000000000000000000000000000008152506040518060400160405280600481526020017f53505458000000000000000000000000000000000000000000000000000000008152508160039081620000de9190620007af565b506004620000ed8282620007af565b5050508060000362000133576040517f392e1e27000000000000000000000000000000000000000000000000000000008152600060048201526024015b60405180910390fd5b6080526005805460ff19169055600160a060020a03811662000185576040517f1e4fbdf7000000000000000000000000000000000000000000000000000000008152600060048201526024016200012a565b6200019981640100000000620001eb810204565b50620001de33620001b2640100000000620001e6810204565b620001bf90600a620006a7565b620001cf906302faf080620006bf565b64010000000062000245810204565b505062000898565b601290565b60058054600160a060020a0383811661010081810261010060a860020a031985161790945560405193909204169182907f8be0079c531659141344cd1fd0a4f28419497f9722a3daafe3b4186f6b6457e090600090a35050565b600160a060020a0382166200028a576040517fec442f05000000000000000000000000000000000000000000000000000000008152600060048201526024016200012a565b620002a160008383640100000000620002a5810204565b5050565b620002bb838383640100000000620002c0810204565b505050565b620002d3640100000000620002e9810204565b620002bb83838364010000000062000336810204565b620002fc640100000000620003d6810204565b1562000334576040517fd93c066500000000000000000000000000000000000000000000000000000000815260040160405180910390fd5b565b6200034c838383640100000000620003df810204565b600160a060020a038316620002bb576000620003706401000000006200052b810204565b905060006200038764010000000062000531810204565b905081811115620003cf576040517f9e79f85400000000000000000000000000000000000000000000000000000000815260048101829052602481018390526044016200012a565b5050505050565b60055460ff1690565b600160a060020a0383166200040e57806002600082825462000402919062000882565b909155506200049b9050565b600160a060020a038316600090815260208190526040902054818110156200047c576040517fe450d38c000000000000000000000000000000000000000000000000000000008152600160a060020a038516600482015260248101829052604481018390526064016200012a565b600160a060020a03841660009081526020819052604090209082900390555b600160a060020a038216620004b957600280548290039055620004d8565b600160a060020a03821660009081526020819052604090208054820190555b81600160a060020a031683600160a060020a03167fddf252ad1be2c89b69c2b068fc378daa952ba7f163c4a11628f55a4df523b3ef836040516200051e91815260200190565b60405180910390a3505050565b60805190565b60025490565b600080604083850312156200054b57600080fd5b82516020840151909250600160a060020a03811681146200056b57600080fd5b809150509250929050565b7f4e487b7100000000000000000000000000000000000000000000000000000000600052601160045260246000fd5b600181815b80851115620005e8578160001904821115620005ca57620005ca62000576565b80851615620005d857918102915b60029094049390800290620005aa565b509250929050565b6000826200060157506001620006a1565b816200061057506000620006a1565b8160018114620006295760028114620006345762000655565b6001915050620006a1565b60ff84111562000648576200064862000576565b8360020a915050620006a1565b5060208310610133831016604e8410600b84101617156200067a575081810a620006a1565b620006868383620005a5565b80600019048211156200069d576200069d62000576565b0290505b92915050565b6000620006b860ff841683620005f0565b9392505050565b8082028115828204841417620006a157620006a162000576565b7f4e487b7100000000000000000000000000000000000000000000000000000000600052604160045260246000fd5b6002810460018216806200071d57607f821691505b60208210810362000757577f4e487b7100000000000000000000000000000000000000000000000000000000600052602260045260246000fd5b50919050565b601f821115620002bb576000818152602081206020601f86010481016020861015620007865750805b6020601f860104820191505b81811015620007a75782815560010162000792565b505050505050565b815167ffffffffffffffff811115620007cc57620007cc620006d9565b620007e481620007dd845462000708565b846200075d565b602080601f831160018114620008205760008415620008035750858301515b60028086026008870290910a6000190419821617865550620007a7565b600085815260208120601f198616915b82811015620008515788860151825594840194600190910190840162000830565b50858210156200087257878501516008601f88160260020a60001904191681555b5050505050600202600101905550565b80820180821115620006a157620006a162000576565b608051610ca8620008bb600039600081816101af01526108f90152610ca86000f3fe608060405234801561001057600080fd5b5060043610610133576000357c01000000000000000000000000000000000000000000000000000000009004806370a08231116100bf5780638da5cb5b1161008e5780638da5cb5b1461024757806395d89b4114610270578063a9059cbb14610278578063dd62ed3e1461028b578063f2fde38b146102c457600080fd5b806370a08231146101fb578063715018a61461022457806379cc67901461022c5780638456cb591461023f57600080fd5b8063313ce56711610106578063313ce5671461019e578063355274ea146101ad5780633f4ba83a146101d357806342966c68146101dd5780635c975abb146101f057600080fd5b806306fdde0314610138578063095ea7b31461015657806318160ddd1461017957806323b872dd1461018b575b600080fd5b6101406102d7565b60405161014d9190610aa7565b60405180910390f35b610169610164366004610b11565b610369565b604051901515815260200161014d565b6002545b60405190815260200161014d565b610169610199366004610b3b565b610383565b6040516012815260200161014d565b7f000000000000000000000000000000000000000000000000000000000000000061017d565b6101db6103a7565b005b6101db6101eb366004610b77565b6103b9565b60055460ff16610169565b61017d610209366004610b90565b600160a060020a031660009081526020819052604090205490565b6101db6103c6565b6101db61023a366004610b11565b6103d8565b6101db6103f1565b6005546101009004600160a060020a0316604051600160a060020a03909116815260200161014d565b610140610401565b610169610286366004610b11565b610410565b61017d610299366004610bb2565b600160a060020a03918216600090815260016020908152604080832093909416825291909152205490565b6101db6102d2366004610b90565b61041e565b6060600380546102e690610be5565b80601f016020809104026020016040519081016040528092919081815260200182805461031290610be5565b801561035f5780601f106103345761010080835404028352916020019161035f565b820191906000526020600020905b81548152906001019060200180831161034257829003601f168201915b5050505050905090565b600033610377818585610477565b60019150505b92915050565b600033610391858285610489565b61039c858585610520565b506001949350505050565b6103af6105b1565b6103b76105fd565b565b6103c3338261064f565b50565b6103ce6105b1565b6103b7600061069e565b6103e3823383610489565b6103ed828261064f565b5050565b6103f96105b1565b6103b7610705565b6060600480546102e690610be5565b600033610377818585610520565b6104266105b1565b600160a060020a03811661046e576040517f1e4fbdf7000000000000000000000000000000000000000000000000000000008152600060048201526024015b60405180910390fd5b6103c38161069e565b6104848383836001610742565b505050565b600160a060020a03838116600090815260016020908152604080832093861683529290522054600019811461051a578181101561050b576040517ffb8f41b2000000000000000000000000000000000000000000000000000000008152600160a060020a03841660048201526024810182905260448101839052606401610465565b61051a84848484036000610742565b50505050565b600160a060020a038316610563576040517f96c6fd1e00000000000000000000000000000000000000000000000000000000815260006004820152602401610465565b600160a060020a0382166105a6576040517fec442f0500000000000000000000000000000000000000000000000000000000815260006004820152602401610465565b610484838383610849565b600554600160a060020a036101009091041633146103b7576040517f118cdaa7000000000000000000000000000000000000000000000000000000008152336004820152602401610465565b610605610854565b6005805460ff191690557f5db9ee0a495bf2e6ff9c91a7834c1ba4fdd244a5e8aa4e537bd38aeae4b073aa335b604051600160a060020a03909116815260200160405180910390a1565b600160a060020a038216610692576040517f96c6fd1e00000000000000000000000000000000000000000000000000000000815260006004820152602401610465565b6103ed82600083610849565b60058054600160a060020a0383811661010081810274ffffffffffffffffffffffffffffffffffffffff001985161790945560405193909204169182907f8be0079c531659141344cd1fd0a4f28419497f9722a3daafe3b4186f6b6457e090600090a35050565b61070d610890565b6005805460ff191660011790557f62e78cea01bee320cd4e420270b5ea74000d11b0c9f74754ebdbfc544b05a2586106323390565b600160a060020a038416610785576040517fe602df0500000000000000000000000000000000000000000000000000000000815260006004820152602401610465565b600160a060020a0383166107c8576040517f94280d6200000000000000000000000000000000000000000000000000000000815260006004820152602401610465565b600160a060020a038085166000908152600160209081526040808320938716835292905220829055801561051a5782600160a060020a031684600160a060020a03167f8c5be1e5ebec7d5bd14f71427d1e84f3dd0314c0f7b2291e5b200ac8c7c3b9258460405161083b91815260200190565b60405180910390a350505050565b6104848383836108cd565b60055460ff166103b7576040517f8dfc202b00000000000000000000000000000000000000000000000000000000815260040160405180910390fd5b60055460ff16156103b7576040517fd93c066500000000000000000000000000000000000000000000000000000000815260040160405180910390fd5b6108d5610890565b6104848383836108e6838383610964565b600160a060020a038316610484576002547f0000000000000000000000000000000000000000000000000000000000000000908181111561095d576040517f9e79f8540000000000000000000000000000000000000000000000000000000081526004810182905260248101839052604401610465565b5050505050565b600160a060020a03831661098f5780600260008282546109849190610c38565b90915550610a1a9050565b600160a060020a038316600090815260208190526040902054818110156109fb576040517fe450d38c000000000000000000000000000000000000000000000000000000008152600160a060020a03851660048201526024810182905260448101839052606401610465565b600160a060020a03841660009081526020819052604090209082900390555b600160a060020a038216610a3657600280548290039055610a55565b600160a060020a03821660009081526020819052604090208054820190555b81600160a060020a031683600160a060020a03167fddf252ad1be2c89b69c2b068fc378daa952ba7f163c4a11628f55a4df523b3ef83604051610a9a91815260200190565b60405180910390a3505050565b600060208083528351808285015260005b81811015610ad457858101830151858201604001528201610ab8565b506000604082860101526040601f19601f8301168501019250505092915050565b8035600160a060020a0381168114610b0c57600080fd5b919050565b60008060408385031215610b2457600080fd5b610b2d83610af5565b946020939093013593505050565b600080600060608486031215610b5057600080fd5b610b5984610af5565b9250610b6760208501610af5565b9150604084013590509250925092565b600060208284031215610b8957600080fd5b5035919050565b600060208284031215610ba257600080fd5b610bab82610af5565b9392505050565b60008060408385031215610bc557600080fd5b610bce83610af5565b9150610bdc60208401610af5565b90509250929050565b600281046001821680610bf957607f821691505b602082108103610c32577f4e487b7100000000000000000000000000000000000000000000000000000000600052602260045260246000fd5b50919050565b8082018082111561037d577f4e487b7100000000000000000000000000000000000000000000000000000000600052601160045260246000fdfea26469706673582212207a4b2bd35719cfc483668d1b07572b470c45c3bd0aca871721fc971cae9659b664736f6c63430008140033",
  "immutableReferences": {
    "932": [
      {
        "length": 32,
        "start": 431
      },
      {
        "length": 32,
        "start": 2297
      }
    ]
  },
  "source": "// contracts/SpaceToken.sol\r\n// SPDX-License-Identifier: MIT\r\n\r\npragma solidity ^0.8.20;\r\n\r\nimport {ERC20} from \"@openzeppelin/contracts/token/ERC20/ERC20.sol\";\r\nimport {ERC20Capped} from \"@openzeppelin/contracts/token/ERC20/extensions/ERC20Capped.sol\";\r\nimport {ERC20Pausable} from \"@openzeppelin/contracts/token/ERC20/extensions/ERC20Pausable.sol\";\r\nimport {ERC20Burnable} from \"@openzeppelin/contracts/token/ERC20/extensions/ERC20Burnable.sol\";\r\nimport {Ownable} from \"@openzeppelin/contracts/access/Ownable.sol\";\r\n\r\ncontract SpaceToken is\r\n    ERC20,\r\n    ERC20Capped,\r\n    ERC20Burnable,\r\n    ERC20Pausable,\r\n    Ownable\r\n{\r\n    constructor(\r\n        uint256 cap,\r\n        address initialOwner\r\n    )\r\n        ERC20(\"SpaceToken\", \"SPTX\")\r\n        ERC20Capped(cap * (10 ** decimals()))\r\n        Ownable(initialOwner)\r\n    {\r\n        _mint(msg.sender, 50000000 * (10 ** decimals()));\r\n    }\r\n\r\n    function pause() public onlyOwner {\r\n        _pause();\r\n    }\r\n\r\n    function unpause() public onlyOwner {\r\n        _unpause();\r\n    }\r\n\r\n    function _update(\r\n        address from,\r\n        address to,\r\n        uint256 value\r\n    ) internal override(ERC20, ERC20Capped, ERC20Pausable) {\r\n        super._update(from, to, value);\r\n    }\r\n}\r\n",
  "sourcePath": "C:\\Users\\siya\\projects\\space-token\\contracts\\SpaceToken.sol",
  "compiler": {
    "name": "solc",
    "version": "0.8.20+commit.a1b79de6.Emscripten.clang"
  },
  "schemaVersion": "3.4.16",
  "updatedAt": "2024-04-20T23:48:03.951Z",
  "devdoc": {
    "errors": {
      "ERC20ExceededCap(uint256,uint256)": [
        {
          "details": "Total supply cap has been exceeded."
        }
      ],
      "ERC20InsufficientAllowance(address,uint256,uint256)": [
        {
          "details": "Indicates a failure with the `spender`s `allowance`. Used in transfers.",
          "params": {
            "allowance": "Amount of tokens a `spender` is allowed to operate with.",
            "needed": "Minimum amount required to perform a transfer.",
            "spender": "Address that may be allowed to operate on tokens without being their owner."
          }
        }
      ],
      "ERC20InsufficientBalance(address,uint256,uint256)": [
        {
          "details": "Indicates an error related to the current `balance` of a `sender`. Used in transfers.",
          "params": {
            "balance": "Current balance for the interacting account.",
            "needed": "Minimum amount required to perform a transfer.",
            "sender": "Address whose tokens are being transferred."
          }
        }
      ],
      "ERC20InvalidApprover(address)": [
        {
          "details": "Indicates a failure with the `approver` of a token to be approved. Used in approvals.",
          "params": {
            "approver": "Address initiating an approval operation."
          }
        }
      ],
      "ERC20InvalidCap(uint256)": [
        {
          "details": "The supplied cap is not a valid cap."
        }
      ],
      "ERC20InvalidReceiver(address)": [
        {
          "details": "Indicates a failure with the token `receiver`. Used in transfers.",
          "params": {
            "receiver": "Address to which tokens are being transferred."
          }
        }
      ],
      "ERC20InvalidSender(address)": [
        {
          "details": "Indicates a failure with the token `sender`. Used in transfers.",
          "params": {
            "sender": "Address whose tokens are being transferred."
          }
        }
      ],
      "ERC20InvalidSpender(address)": [
        {
          "details": "Indicates a failure with the `spender` to be approved. Used in approvals.",
          "params": {
            "spender": "Address that may be allowed to operate on tokens without being their owner."
          }
        }
      ],
      "EnforcedPause()": [
        {
          "details": "The operation failed because the contract is paused."
        }
      ],
      "ExpectedPause()": [
        {
          "details": "The operation failed because the contract is not paused."
        }
      ],
      "OwnableInvalidOwner(address)": [
        {
          "details": "The owner is not a valid owner account. (eg. `address(0)`)"
        }
      ],
      "OwnableUnauthorizedAccount(address)": [
        {
          "details": "The caller account is not authorized to perform an operation."
        }
      ]
    },
    "events": {
      "Approval(address,address,uint256)": {
        "details": "Emitted when the allowance of a `spender` for an `owner` is set by a call to {approve}. `value` is the new allowance."
      },
      "Paused(address)": {
        "details": "Emitted when the pause is triggered by `account`."
      },
      "Transfer(address,address,uint256)": {
        "details": "Emitted when `value` tokens are moved from one account (`from`) to another (`to`). Note that `value` may be zero."
      },
      "Unpaused(address)": {
        "details": "Emitted when the pause is lifted by `account`."
      }
    },
    "kind": "dev",
    "methods": {
      "allowance(address,address)": {
        "details": "See {IERC20-allowance}."
      },
      "approve(address,uint256)": {
        "details": "See {IERC20-approve}. NOTE: If `value` is the maximum `uint256`, the allowance is not updated on `transferFrom`. This is semantically equivalent to an infinite approval. Requirements: - `spender` cannot be the zero address."
      },
      "balanceOf(address)": {
        "details": "See {IERC20-balanceOf}."
      },
      "burn(uint256)": {
        "details": "Destroys a `value` amount of tokens from the caller. See {ERC20-_burn}."
      },
      "burnFrom(address,uint256)": {
        "details": "Destroys a `value` amount of tokens from `account`, deducting from the caller's allowance. See {ERC20-_burn} and {ERC20-allowance}. Requirements: - the caller must have allowance for ``accounts``'s tokens of at least `value`."
      },
      "cap()": {
        "details": "Returns the cap on the token's total supply."
      },
      "decimals()": {
        "details": "Returns the number of decimals used to get its user representation. For example, if `decimals` equals `2`, a balance of `505` tokens should be displayed to a user as `5.05` (`505 / 10 ** 2`). Tokens usually opt for a value of 18, imitating the relationship between Ether and Wei. This is the default value returned by this function, unless it's overridden. NOTE: This information is only used for _display_ purposes: it in no way affects any of the arithmetic of the contract, including {IERC20-balanceOf} and {IERC20-transfer}."
      },
      "name()": {
        "details": "Returns the name of the token."
      },
      "owner()": {
        "details": "Returns the address of the current owner."
      },
      "paused()": {
        "details": "Returns true if the contract is paused, and false otherwise."
      },
      "renounceOwnership()": {
        "details": "Leaves the contract without owner. It will not be possible to call `onlyOwner` functions. Can only be called by the current owner. NOTE: Renouncing ownership will leave the contract without an owner, thereby disabling any functionality that is only available to the owner."
      },
      "symbol()": {
        "details": "Returns the symbol of the token, usually a shorter version of the name."
      },
      "totalSupply()": {
        "details": "See {IERC20-totalSupply}."
      },
      "transfer(address,uint256)": {
        "details": "See {IERC20-transfer}. Requirements: - `to` cannot be the zero address. - the caller must have a balance of at least `value`."
      },
      "transferFrom(address,address,uint256)": {
        "details": "See {IERC20-transferFrom}. Emits an {Approval} event indicating the updated allowance. This is not required by the EIP. See the note at the beginning of {ERC20}. NOTE: Does not update the allowance if the current allowance is the maximum `uint256`. Requirements: - `from` and `to` cannot be the zero address. - `from` must have a balance of at least `value`. - the caller must have allowance for ``from``'s tokens of at least `value`."
      },
      "transferOwnership(address)": {
        "details": "Transfers ownership of the contract to a new account (`newOwner`). Can only be called by the current owner."
      }
    },
    "version": 1
  },
  "userdoc": {
    "kind": "user",
    "methods": {},
    "version": 1
  }
}