{
  "contractName": "SpaceToken",
  "abi": [
    {
      "inputs": [
        {
          "internalType": "uint256",
          "name": "cap",
          "type": "uint256"
        },
        {
          "internalType": "address",
          "name": "initialOwner",
          "type": "address"
        }
      ],
      "stateMutability": "nonpayable",
      "type": "constructor"
    },
    {
      "inputs": [
        {
          "internalType": "uint256",
          "name": "increasedSupply",
          "type": "uint256"
        },
        {
          "internalType": "uint256",
          "name": "cap",
          "type": "uint256"
        }
      ],
      "name": "ERC20ExceededCap",
      "type": "error"
    },
    {
      "inputs": [
        {
          "internalType": "address",
          "name": "spender",
          "type": "address"
        },
        {
          "internalType": "uint256",
          "name": "allowance",
          "type": "uint256"
        },
        {
          "internalType": "uint256",
          "name": "needed",
          "type": "uint256"
        }
      ],
      "name": "ERC20InsufficientAllowance",
      "type": "error"
    },
    {
      "inputs": [
        {
          "internalType": "address",
          "name": "sender",
          "type": "address"
        },
        {
          "internalType": "uint256",
          "name": "balance",
          "type": "uint256"
        },
        {
          "internalType": "uint256",
          "name": "needed",
          "type": "uint256"
        }
      ],
      "name": "ERC20InsufficientBalance",
      "type": "error"
    },
    {
      "inputs": [
        {
          "internalType": "address",
          "name": "approver",
          "type": "address"
        }
      ],
      "name": "ERC20InvalidApprover",
      "type": "error"
    },
    {
      "inputs": [
        {
          "internalType": "uint256",
          "name": "cap",
          "type": "uint256"
        }
      ],
      "name": "ERC20InvalidCap",
      "type": "error"
    },
    {
      "inputs": [
        {
          "internalType": "address",
          "name": "receiver",
          "type": "address"
        }
      ],
      "name": "ERC20InvalidReceiver",
      "type": "error"
    },
    {
      "inputs": [
        {
          "internalType": "address",
          "name": "sender",
          "type": "address"
        }
      ],
      "name": "ERC20InvalidSender",
      "type": "error"
    },
    {
      "inputs": [
        {
          "internalType": "address",
          "name": "spender",
          "type": "address"
        }
      ],
      "name": "ERC20InvalidSpender",
      "type": "error"
    },
    {
      "inputs": [],
      "name": "EnforcedPause",
      "type": "error"
    },
    {
      "inputs": [],
      "name": "ExpectedPause",
      "type": "error"
    },
    {
      "inputs": [
        {
          "internalType": "address",
          "name": "owner",
          "type": "address"
        }
      ],
      "name": "OwnableInvalidOwner",
      "type": "error"
    },
    {
      "inputs": [
        {
          "internalType": "address",
          "name": "account",
          "type": "address"
        }
      ],
      "name": "OwnableUnauthorizedAccount",
      "type": "error"
    },
    {
      "anonymous": false,
      "inputs": [
        {
          "indexed": true,
          "internalType": "address",
          "name": "owner",
          "type": "address"
        },
        {
          "indexed": true,
          "internalType": "address",
          "name": "spender",
          "type": "address"
        },
        {
          "indexed": false,
          "internalType": "uint256",
          "name": "value",
          "type": "uint256"
        }
      ],
      "name": "Approval",
      "type": "event"
    },
    {
      "anonymous": false,
      "inputs": [
        {
          "indexed": true,
          "internalType": "address",
          "name": "previousOwner",
          "type": "address"
        },
        {
          "indexed": true,
          "internalType": "address",
          "name": "newOwner",
          "type": "address"
        }
      ],
      "name": "OwnershipTransferred",
      "type": "event"
    },
    {
      "anonymous": false,
      "inputs": [
        {
          "indexed": false,
          "internalType": "address",
          "name": "account",
          "type": "address"
        }
      ],
      "name": "Paused",
      "type": "event"
    },
    {
      "anonymous": false,
      "inputs": [
        {
          "indexed": true,
          "internalType": "address",
          "name": "from",
          "type": "address"
        },
        {
          "indexed": true,
          "internalType": "address",
          "name": "to",
          "type": "address"
        },
        {
          "indexed": false,
          "internalType": "uint256",
          "name": "value",
          "type": "uint256"
        }
      ],
      "name": "Transfer",
      "type": "event"
    },
    {
      "anonymous": false,
      "inputs": [
        {
          "indexed": false,
          "internalType": "address",
          "name": "account",
          "type": "address"
        }
      ],
      "name": "Unpaused",
      "type": "event"
    },
    {
      "inputs": [
        {
          "internalType": "address",
          "name": "owner",
          "type": "address"
        },
        {
          "internalType": "address",
          "name": "spender",
          "type": "address"
        }
      ],
      "name": "allowance",
      "outputs": [
        {
          "internalType": "uint256",
          "name": "",
          "type": "uint256"
        }
      ],
      "stateMutability": "view",
      "type": "function",
      "constant": true
    },
    {
      "inputs": [
        {
          "internalType": "address",
          "name": "spender",
          "type": "address"
        },
        {
          "internalType": "uint256",
          "name": "value",
          "type": "uint256"
        }
      ],
      "name": "approve",
      "outputs": [
        {
          "internalType": "bool",
          "name": "",
          "type": "bool"
        }
      ],
      "stateMutability": "nonpayable",
      "type": "function"
    },
    {
      "inputs": [
        {
          "internalType": "address",
          "name": "account",
          "type": "address"
        }
      ],
      "name": "balanceOf",
      "outputs": [
        {
          "internalType": "uint256",
          "name": "",
          "type": "uint256"
        }
      ],
      "stateMutability": "view",
      "type": "function",
      "constant": true
    },
    {
      "inputs": [
        {
          "internalType": "uint256",
          "name": "value",
          "type": "uint256"
        }
      ],
      "name": "burn",
      "outputs": [],
      "stateMutability": "nonpayable",
      "type": "function"
    },
    {
      "inputs": [
        {
          "internalType": "address",
          "name": "account",
          "type": "address"
        },
        {
          "internalType": "uint256",
          "name": "value",
          "type": "uint256"
        }
      ],
      "name": "burnFrom",
      "outputs": [],
      "stateMutability": "nonpayable",
      "type": "function"
    },
    {
      "inputs": [],
      "name": "cap",
      "outputs": [
        {
          "internalType": "uint256",
          "name": "",
          "type": "uint256"
        }
      ],
      "stateMutability": "view",
      "type": "function",
      "constant": true
    },
    {
      "inputs": [],
      "name": "decimals",
      "outputs": [
        {
          "internalType": "uint8",
          "name": "",
          "type": "uint8"
        }
      ],
      "stateMutability": "view",
      "type": "function",
      "constant": true
    },
    {
      "inputs": [],
      "name": "name",
      "outputs": [
        {
          "internalType": "string",
          "name": "",
          "type": "string"
        }
      ],
      "stateMutability": "view",
      "type": "function",
      "constant": true
    },
    {
      "inputs": [],
      "name": "owner",
      "outputs": [
        {
          "internalType": "address",
          "name": "",
          "type": "address"
        }
      ],
      "stateMutability": "view",
      "type": "function",
      "constant": true
    },
    {
      "inputs": [],
      "name": "paused",
      "outputs": [
        {
          "internalType": "bool",
          "name": "",
          "type": "bool"
        }
      ],
      "stateMutability": "view",
      "type": "function",
      "constant": true
    },
    {
      "inputs": [],
      "name": "renounceOwnership",
      "outputs": [],
      "stateMutability": "nonpayable",
      "type": "function"
    },
    {
      "inputs": [],
      "name": "symbol",
      "outputs": [
        {
          "internalType": "string",
          "name": "",
          "type": "string"
        }
      ],
      "stateMutability": "view",
      "type": "function",
      "constant": true
    },
    {
      "inputs": [],
      "name": "totalSupply",
      "outputs": [
        {
          "internalType": "uint256",
          "name": "",
          "type": "uint256"
        }
      ],
      "stateMutability": "view",
      "type": "function",
      "constant": true
    },
    {
      "inputs": [
        {
          "internalType": "address",
          "name": "to",
          "type": "address"
        },
        {
          "internalType": "uint256",
          "name": "value",
          "type": "uint256"
        }
      ],
      "name": "transfer",
      "outputs": [
        {
          "internalType": "bool",
          "name": "",
          "type": "bool"
        }
      ],
      "stateMutability": "nonpayable",
      "type": "function"
    },
    {
      "inputs": [
        {
          "internalType": "address",
          "name": "from",
          "type": "address"
        },
        {
          "internalType": "address",
          "name": "to",
          "type": "address"
        },
        {
          "internalType": "uint256",
          "name": "value",
          "type": "uint256"
        }
      ],
      "name": "transferFrom",
      "outputs": [
        {
          "internalType": "bool",
          "name": "",
          "type": "bool"
        }
      ],
      "stateMutability": "nonpayable",
      "type": "function"
    },
    {
      "inputs": [
        {
          "internalType": "address",
          "name": "newOwner",
          "type": "address"
        }
      ],
      "name": "transferOwnership",
      "outputs": [],
      "stateMutability": "nonpayable",
      "type": "function"
    },
    {
      "inputs": [],
      "name": "pause",
      "outputs": [],
      "stateMutability": "nonpayable",
      "type": "function"
    },
    {
      "inputs": [],
      "name": "unpause",
      "outputs": [],
      "stateMutability": "nonpayable",
      "type": "function"
    }
  ],
  "bytecode": "0x60a060405234801562000010575f80fd5b506040516200125938038062001259833981016040819052620000339162000451565b80620000426012600a6200059c565b6200004e9084620005b3565b6040518060400160405280600a81526020016929b830b1b2aa37b5b2b760b11b815250604051806040016040528060048152602001630a6a0a8b60e31b81525081600390816200009f91906200066c565b506004620000ae82826200066c565b505050805f03620000d95760405163392e1e2760e01b81525f60048201526024015b60405180910390fd5b6080526005805460ff191690556001600160a01b0381166200011157604051631e4fbdf760e01b81525f6004820152602401620000d0565b6200011c81620001d3565b506200014633620001306012600a6200059c565b62000140906302faf080620005b3565b6200022c565b620001546012600a6200059c565b62000164906302faf080620005b3565b821015620001cb5760405162461bcd60e51b815260206004820152602d60248201527f436170206973206c657373207468616e20726571756972656420696e6974696160448201526c1b081b5a5b9d08185b5bdd5b9d609a1b6064820152608401620000d0565b50506200074a565b600580546001600160a01b03838116610100818102610100600160a81b031985161790945560405193909204169182907f8be0079c531659141344cd1fd0a4f28419497f9722a3daafe3b4186f6b6457e0905f90a35050565b6001600160a01b038216620002575760405163ec442f0560e01b81525f6004820152602401620000d0565b620002645f838362000268565b5050565b620002758383836200027a565b505050565b6200028462000291565b62000275838383620002b8565b60055460ff1615620002b65760405163d93c066560e01b815260040160405180910390fd5b565b620002c583838362000322565b6001600160a01b03831662000275575f620002df60805190565b90505f620002ec60025490565b9050818111156200031b5760405163279e7e1560e21b81526004810182905260248101839052604401620000d0565b5050505050565b6001600160a01b03831662000350578060025f82825462000344919062000734565b90915550620003c29050565b6001600160a01b0383165f9081526020819052604090205481811015620003a45760405163391434e360e21b81526001600160a01b03851660048201526024810182905260448101839052606401620000d0565b6001600160a01b0384165f9081526020819052604090209082900390555b6001600160a01b038216620003e057600280548290039055620003fe565b6001600160a01b0382165f9081526020819052604090208054820190555b816001600160a01b0316836001600160a01b03167fddf252ad1be2c89b69c2b068fc378daa952ba7f163c4a11628f55a4df523b3ef836040516200044491815260200190565b60405180910390a3505050565b5f806040838503121562000463575f80fd5b825160208401519092506001600160a01b038116811462000482575f80fd5b809150509250929050565b634e487b7160e01b5f52601160045260245ffd5b600181815b80851115620004e157815f1904821115620004c557620004c56200048d565b80851615620004d357918102915b93841c9390800290620004a6565b509250929050565b5f82620004f95750600162000596565b816200050757505f62000596565b81600181146200052057600281146200052b576200054b565b600191505062000596565b60ff8411156200053f576200053f6200048d565b50506001821b62000596565b5060208310610133831016604e8410600b841016171562000570575081810a62000596565b6200057c8383620004a1565b805f19048211156200059257620005926200048d565b0290505b92915050565b5f620005ac60ff841683620004e9565b9392505050565b80820281158282048414176200059657620005966200048d565b634e487b7160e01b5f52604160045260245ffd5b600181811c90821680620005f657607f821691505b6020821081036200061557634e487b7160e01b5f52602260045260245ffd5b50919050565b601f82111562000275575f81815260208120601f850160051c81016020861015620006435750805b601f850160051c820191505b8181101562000664578281556001016200064f565b505050505050565b81516001600160401b03811115620006885762000688620005cd565b620006a081620006998454620005e1565b846200061b565b602080601f831160018114620006d6575f8415620006be5750858301515b5f19600386901b1c1916600185901b17855562000664565b5f85815260208120601f198616915b828110156200070657888601518255948401946001909101908401620006e5565b50858210156200072457878501515f19600388901b60f8161c191681555b5050505050600190811b01905550565b808201808211156200059657620005966200048d565b608051610aef6200076a5f395f818161018c01526107bb0152610aef5ff3fe608060405234801561000f575f80fd5b5060043610610111575f3560e01c806370a082311161009e5780638da5cb5b1161006e5780638da5cb5b1461022357806395d89b411461024c578063a9059cbb14610254578063dd62ed3e14610267578063f2fde38b1461029f575f80fd5b806370a08231146101d8578063715018a61461020057806379cc6790146102085780638456cb591461021b575f80fd5b8063313ce567116100e4578063313ce5671461017b578063355274ea1461018a5780633f4ba83a146101b057806342966c68146101ba5780635c975abb146101cd575f80fd5b806306fdde0314610115578063095ea7b31461013357806318160ddd1461015657806323b872dd14610168575b5f80fd5b61011d6102b2565b60405161012a9190610933565b60405180910390f35b610146610141366004610999565b610342565b604051901515815260200161012a565b6002545b60405190815260200161012a565b6101466101763660046109c1565b61035b565b6040516012815260200161012a565b7f000000000000000000000000000000000000000000000000000000000000000061015a565b6101b861037e565b005b6101b86101c83660046109fa565b610390565b60055460ff16610146565b61015a6101e6366004610a11565b6001600160a01b03165f9081526020819052604090205490565b6101b861039d565b6101b8610216366004610999565b6103ae565b6101b86103c7565b60055461010090046001600160a01b03166040516001600160a01b03909116815260200161012a565b61011d6103d7565b610146610262366004610999565b6103e6565b61015a610275366004610a31565b6001600160a01b039182165f90815260016020908152604080832093909416825291909152205490565b6101b86102ad366004610a11565b6103f3565b6060600380546102c190610a62565b80601f01602080910402602001604051908101604052809291908181526020018280546102ed90610a62565b80156103385780601f1061030f57610100808354040283529160200191610338565b820191905f5260205f20905b81548152906001019060200180831161031b57829003601f168201915b5050505050905090565b5f3361034f818585610432565b60019150505b92915050565b5f33610368858285610444565b6103738585856104bf565b506001949350505050565b61038661051c565b61038e61054f565b565b61039a33826105a1565b50565b6103a561051c565b61038e5f6105d5565b6103b9823383610444565b6103c382826105a1565b5050565b6103cf61051c565b61038e61062e565b6060600480546102c190610a62565b5f3361034f8185856104bf565b6103fb61051c565b6001600160a01b03811661042957604051631e4fbdf760e01b81525f60048201526024015b60405180910390fd5b61039a816105d5565b61043f838383600161066b565b505050565b6001600160a01b038381165f908152600160209081526040808320938616835292905220545f1981146104b957818110156104ab57604051637dc7a0d960e11b81526001600160a01b03841660048201526024810182905260448101839052606401610420565b6104b984848484035f61066b565b50505050565b6001600160a01b0383166104e857604051634b637e8f60e11b81525f6004820152602401610420565b6001600160a01b0382166105115760405163ec442f0560e01b81525f6004820152602401610420565b61043f83838361073d565b6005546001600160a01b0361010090910416331461038e5760405163118cdaa760e01b8152336004820152602401610420565b610557610748565b6005805460ff191690557f5db9ee0a495bf2e6ff9c91a7834c1ba4fdd244a5e8aa4e537bd38aeae4b073aa335b6040516001600160a01b03909116815260200160405180910390a1565b6001600160a01b0382166105ca57604051634b637e8f60e11b81525f6004820152602401610420565b6103c3825f8361073d565b600580546001600160a01b03838116610100818102610100600160a81b031985161790945560405193909204169182907f8be0079c531659141344cd1fd0a4f28419497f9722a3daafe3b4186f6b6457e0905f90a35050565b61063661076b565b6005805460ff191660011790557f62e78cea01bee320cd4e420270b5ea74000d11b0c9f74754ebdbfc544b05a2586105843390565b6001600160a01b0384166106945760405163e602df0560e01b81525f6004820152602401610420565b6001600160a01b0383166106bd57604051634a1406b160e11b81525f6004820152602401610420565b6001600160a01b038085165f90815260016020908152604080832093871683529290522082905580156104b957826001600160a01b0316846001600160a01b03167f8c5be1e5ebec7d5bd14f71427d1e84f3dd0314c0f7b2291e5b200ac8c7c3b9258460405161072f91815260200190565b60405180910390a350505050565b61043f83838361078f565b60055460ff1661038e57604051638dfc202b60e01b815260040160405180910390fd5b60055460ff161561038e5760405163d93c066560e01b815260040160405180910390fd5b61079761076b565b61043f8383836107a883838361080d565b6001600160a01b03831661043f576002547f000000000000000000000000000000000000000000000000000000000000000090818111156108065760405163279e7e1560e21b81526004810182905260248101839052604401610420565b5050505050565b6001600160a01b038316610837578060025f82825461082c9190610a9a565b909155506108a79050565b6001600160a01b0383165f90815260208190526040902054818110156108895760405163391434e360e21b81526001600160a01b03851660048201526024810182905260448101839052606401610420565b6001600160a01b0384165f9081526020819052604090209082900390555b6001600160a01b0382166108c3576002805482900390556108e1565b6001600160a01b0382165f9081526020819052604090208054820190555b816001600160a01b0316836001600160a01b03167fddf252ad1be2c89b69c2b068fc378daa952ba7f163c4a11628f55a4df523b3ef8360405161092691815260200190565b60405180910390a3505050565b5f6020808352835180828501525f5b8181101561095e57858101830151858201604001528201610942565b505f604082860101526040601f19601f8301168501019250505092915050565b80356001600160a01b0381168114610994575f80fd5b919050565b5f80604083850312156109aa575f80fd5b6109b38361097e565b946020939093013593505050565b5f805f606084860312156109d3575f80fd5b6109dc8461097e565b92506109ea6020850161097e565b9150604084013590509250925092565b5f60208284031215610a0a575f80fd5b5035919050565b5f60208284031215610a21575f80fd5b610a2a8261097e565b9392505050565b5f8060408385031215610a42575f80fd5b610a4b8361097e565b9150610a596020840161097e565b90509250929050565b600181811c90821680610a7657607f821691505b602082108103610a9457634e487b7160e01b5f52602260045260245ffd5b50919050565b8082018082111561035557634e487b7160e01b5f52601160045260245ffdfea264697066735822122076e866d6a6d0980163bd1e082d85cd028cb407b94e060eee693f0cbc1892482f64736f6c63430008140033",
  "immutableReferences": {
    "932": [
      {
        "length": 32,
        "start": 396
      },
      {
        "length": 32,
        "start": 1979
      }
    ]
  },
  "source": "// contracts/SpaceToken.sol\r\n// SPDX-License-Identifier: MIT\r\n\r\npragma solidity ^0.8.20;\r\n\r\nimport {ERC20} from \"@openzeppelin/contracts/token/ERC20/ERC20.sol\";\r\nimport {ERC20Capped} from \"@openzeppelin/contracts/token/ERC20/extensions/ERC20Capped.sol\";\r\nimport {ERC20Pausable} from \"@openzeppelin/contracts/token/ERC20/extensions/ERC20Pausable.sol\";\r\nimport {ERC20Burnable} from \"@openzeppelin/contracts/token/ERC20/extensions/ERC20Burnable.sol\";\r\nimport {Ownable} from \"@openzeppelin/contracts/access/Ownable.sol\";\r\n\r\ncontract SpaceToken is\r\n    ERC20,\r\n    ERC20Capped,\r\n    ERC20Burnable,\r\n    ERC20Pausable,\r\n    Ownable\r\n{\r\n    constructor(\r\n        uint256 cap,\r\n        address initialOwner\r\n    )\r\n        ERC20(\"SpaceToken\", \"SPTX\")\r\n        ERC20Capped(cap * (10 ** decimals()))\r\n        Ownable(initialOwner)\r\n    {\r\n        _mint(msg.sender, 50000000 * (10 ** decimals()));\r\n        require(\r\n            cap >= 50000000 * (10 ** decimals()),\r\n            \"Cap is less than required initial mint amount\"\r\n        );\r\n    }\r\n\r\n    function pause() public onlyOwner {\r\n        _pause();\r\n    }\r\n\r\n    function unpause() public onlyOwner {\r\n        _unpause();\r\n    }\r\n\r\n    function _update(\r\n        address from,\r\n        address to,\r\n        uint256 value\r\n    ) internal override(ERC20, ERC20Capped, ERC20Pausable) {\r\n        super._update(from, to, value);\r\n    }\r\n}\r\n",
  "sourcePath": "C:\\Users\\siya\\projects\\space-token\\contracts\\SpaceToken.sol",
  "compiler": {
    "name": "solc",
    "version": "0.8.20+commit.a1b79de6.Emscripten.clang"
  },
  "schemaVersion": "3.4.16",
  "updatedAt": "2024-04-26T21:27:34.125Z",
  "networkType": "ethereum",
  "devdoc": {
    "errors": {
      "ERC20ExceededCap(uint256,uint256)": [
        {
          "details": "Total supply cap has been exceeded."
        }
      ],
      "ERC20InsufficientAllowance(address,uint256,uint256)": [
        {
          "details": "Indicates a failure with the `spender`s `allowance`. Used in transfers.",
          "params": {
            "allowance": "Amount of tokens a `spender` is allowed to operate with.",
            "needed": "Minimum amount required to perform a transfer.",
            "spender": "Address that may be allowed to operate on tokens without being their owner."
          }
        }
      ],
      "ERC20InsufficientBalance(address,uint256,uint256)": [
        {
          "details": "Indicates an error related to the current `balance` of a `sender`. Used in transfers.",
          "params": {
            "balance": "Current balance for the interacting account.",
            "needed": "Minimum amount required to perform a transfer.",
            "sender": "Address whose tokens are being transferred."
          }
        }
      ],
      "ERC20InvalidApprover(address)": [
        {
          "details": "Indicates a failure with the `approver` of a token to be approved. Used in approvals.",
          "params": {
            "approver": "Address initiating an approval operation."
          }
        }
      ],
      "ERC20InvalidCap(uint256)": [
        {
          "details": "The supplied cap is not a valid cap."
        }
      ],
      "ERC20InvalidReceiver(address)": [
        {
          "details": "Indicates a failure with the token `receiver`. Used in transfers.",
          "params": {
            "receiver": "Address to which tokens are being transferred."
          }
        }
      ],
      "ERC20InvalidSender(address)": [
        {
          "details": "Indicates a failure with the token `sender`. Used in transfers.",
          "params": {
            "sender": "Address whose tokens are being transferred."
          }
        }
      ],
      "ERC20InvalidSpender(address)": [
        {
          "details": "Indicates a failure with the `spender` to be approved. Used in approvals.",
          "params": {
            "spender": "Address that may be allowed to operate on tokens without being their owner."
          }
        }
      ],
      "EnforcedPause()": [
        {
          "details": "The operation failed because the contract is paused."
        }
      ],
      "ExpectedPause()": [
        {
          "details": "The operation failed because the contract is not paused."
        }
      ],
      "OwnableInvalidOwner(address)": [
        {
          "details": "The owner is not a valid owner account. (eg. `address(0)`)"
        }
      ],
      "OwnableUnauthorizedAccount(address)": [
        {
          "details": "The caller account is not authorized to perform an operation."
        }
      ]
    },
    "events": {
      "Approval(address,address,uint256)": {
        "details": "Emitted when the allowance of a `spender` for an `owner` is set by a call to {approve}. `value` is the new allowance."
      },
      "Paused(address)": {
        "details": "Emitted when the pause is triggered by `account`."
      },
      "Transfer(address,address,uint256)": {
        "details": "Emitted when `value` tokens are moved from one account (`from`) to another (`to`). Note that `value` may be zero."
      },
      "Unpaused(address)": {
        "details": "Emitted when the pause is lifted by `account`."
      }
    },
    "kind": "dev",
    "methods": {
      "allowance(address,address)": {
        "details": "See {IERC20-allowance}."
      },
      "approve(address,uint256)": {
        "details": "See {IERC20-approve}. NOTE: If `value` is the maximum `uint256`, the allowance is not updated on `transferFrom`. This is semantically equivalent to an infinite approval. Requirements: - `spender` cannot be the zero address."
      },
      "balanceOf(address)": {
        "details": "See {IERC20-balanceOf}."
      },
      "burn(uint256)": {
        "details": "Destroys a `value` amount of tokens from the caller. See {ERC20-_burn}."
      },
      "burnFrom(address,uint256)": {
        "details": "Destroys a `value` amount of tokens from `account`, deducting from the caller's allowance. See {ERC20-_burn} and {ERC20-allowance}. Requirements: - the caller must have allowance for ``accounts``'s tokens of at least `value`."
      },
      "cap()": {
        "details": "Returns the cap on the token's total supply."
      },
      "decimals()": {
        "details": "Returns the number of decimals used to get its user representation. For example, if `decimals` equals `2`, a balance of `505` tokens should be displayed to a user as `5.05` (`505 / 10 ** 2`). Tokens usually opt for a value of 18, imitating the relationship between Ether and Wei. This is the default value returned by this function, unless it's overridden. NOTE: This information is only used for _display_ purposes: it in no way affects any of the arithmetic of the contract, including {IERC20-balanceOf} and {IERC20-transfer}."
      },
      "name()": {
        "details": "Returns the name of the token."
      },
      "owner()": {
        "details": "Returns the address of the current owner."
      },
      "paused()": {
        "details": "Returns true if the contract is paused, and false otherwise."
      },
      "renounceOwnership()": {
        "details": "Leaves the contract without owner. It will not be possible to call `onlyOwner` functions. Can only be called by the current owner. NOTE: Renouncing ownership will leave the contract without an owner, thereby disabling any functionality that is only available to the owner."
      },
      "symbol()": {
        "details": "Returns the symbol of the token, usually a shorter version of the name."
      },
      "totalSupply()": {
        "details": "See {IERC20-totalSupply}."
      },
      "transfer(address,uint256)": {
        "details": "See {IERC20-transfer}. Requirements: - `to` cannot be the zero address. - the caller must have a balance of at least `value`."
      },
      "transferFrom(address,address,uint256)": {
        "details": "See {IERC20-transferFrom}. Emits an {Approval} event indicating the updated allowance. This is not required by the EIP. See the note at the beginning of {ERC20}. NOTE: Does not update the allowance if the current allowance is the maximum `uint256`. Requirements: - `from` and `to` cannot be the zero address. - `from` must have a balance of at least `value`. - the caller must have allowance for ``from``'s tokens of at least `value`."
      },
      "transferOwnership(address)": {
        "details": "Transfers ownership of the contract to a new account (`newOwner`). Can only be called by the current owner."
      }
    },
    "version": 1
  },
  "userdoc": {
    "kind": "user",
    "methods": {},
    "version": 1
  }
}